:020000040800F2
:10000000D0040020D9000008110D0008BD08000828
:1000100000000000000000000000000000000000E0
:10002000000000000000000000000000450E000875
:100030000000000000000000C50D0008470E000889
:10004000F1000008F100000800000000F1000008C5
:10005000F1000008F1000008F1000008F1000008BC
:10006000F1000008F1000008F100000800000000A5
:1000700015020008F1000008F1000008F100000876
:10008000F100000800000000000000000000000077
:10009000F1000008F100000800000000000000006E
:1000A000F10000080000000000000000F10000085E
:1000B0000000000000000000000000000000000040
:1000C0000448854600F032F8004800473114000823
:1000D000C046C046D0040020064880F30888064881
:1000E000804706480047FEE7FEE7FEE7FEE7FEE73B
:1000F000FEE70000D0040020510E0008C1000008F7
:1001000030B50B46014600202022012409E00D46AF
:10011000D5409D4205D31D469540491B2546954037
:1001200040191546521E002DF1DC30BD064C01254C
:10013000064E05E0E36807CC2B430C3C984710348F
:10014000B442F7D3FFF7C0FF3C1600085C16000866
:1001500001290AD002290DD00122920691420ED126
:10016000816D9212114381657047416901221143EB
:10017000416170474169022211434161704704297E
:1001800007D01029FAD1816D012212051143816532
:100190007047816D012292041143816570470029E7
:1001A000416802D00122114301E049084900416041
:1001B0007047002201290BD002290ED001239B0693
:1001C000994210D1816D9A12114081651DD11EE0B6
:1001D0004169CA07D20F42611AE041690222114007
:1001E000416112D113E0102902D0042907D00FE099
:1001F000816D012212051140816506D107E0816DF4
:10020000012292041140816501D0012200E0002208
:100210001046704710B5074C10212046FFF7C9FF64
:10022000012805D110212046FFF792FF00F048FB7E
:1002300010BD00000024014070B4102402260425E3
:10024000A305002A19D0012906D0022908D0994215
:1002500009D18168194318E081680122114314E033
:100260008168314311E0102904D004290ED1816E38
:1002700029431AE0816E214317E0012908D00229A1
:100280000AD099420BD181689943816070BC704754
:10029000816849084900F8E78168B143F5E710290A
:1002A00006D00429F2D1816EA943816670BC7047E3
:1002B000816EA143F9E7000010B44268144B154C5D
:1002C0001A404B6823401A43426042680723DB010F
:1002D0000C689A431C402243426082680123DB027F
:1002E0000C699A431C4022438260826803235B02AC
:1002F0008C689A431C40224382608268064BC9681E
:100300001A40DB4319400A43826010BC704700006A
:100310008FBFFFFF704000008FFFF9FF8030C26881
:1003200003231B0589079A43890A0A43C260704761
:10033000002908D08030012907D0022907D00329DD
:1003400000D182607047C2677047026070474260A8
:10035000704710B48030C3688C0009191F248C408A
:10036000D206D20EA3438A401343C36010BC704729
:1003700002220029816E01D0114300E09143816681
:10038000704780220029816E01D0114300E0914323
:100390008166704730B4846E1F252D02AC4329401E
:1003A0000C438466816E07246403A14323401943F0
:1003B0008166816E03231B0499431A4011438166B1
:1003C00030BC70470F2310B41A40072909D9446F75
:1003D000083989008B409C438A401443446710BC11
:1003E0007047046F89008B409C438A401443046724
:1003F00010BC70470021016041608160016170475D
:1004000007480146497A002906D1017A002904D01B
:10041000002101720321417270470121F9E70000B8
:10042000C400002004490A46527A002A02D1087208
:100430000520487270470000C400002004490A46A5
:10044000527A002A02D108600420487270470000E6
:10045000C400002003480146497A002901D1022145
:1004600041727047C400002003480146497A0029C0
:1004700001D1012141727047C40000200248417A35
:100480000029FCD170470000C40000200148002171
:1004900041727047C4000020024948604868002843
:1004A000FCD170472000002070B52848244D254A13
:1004B000254C4168002902D04168491E41600188ED
:1004C0004B1C0380192917D900260680607A2979E8
:1004D000002911D000280FD007280DD2010079443F
:1004E000097949188F440803090F280F120001F0F9
:1004F00075F801202871667270BD0220287166723D
:1005000070BD667270BD207A6871FAE720689169E3
:10051000401A002805DD616800F066FE29680818A9
:1005200005E04042616800F05FFE2968081A286013
:100530006068411E6160E5D220682860E1E7000044
:10054000800000209C000020C4000020200000202B
:10055000F0B40E7817490027CA57154D531C5CB2EA
:100560004B68002E0DD0012E09D16D6B2DB2002DE0
:1005700000DA6D425B194B600C701F2A0BD0F0BC87
:1005800070472D6B2DB2002D00DA6D425B194B6068
:100590000C701F2AF3D10F7002693D235A436B0080
:1005A000EB18D218920902614F60F0BC704700004E
:1005B00080240140180000207047000003481021EB
:1005C0004161402141618900416170470004004858
:1005D00003481021016140210161890001617047D8
:1005E00000040048828907494A6300228A63CA637B
:1005F000054910224A6140220A6192004A610121A4
:1006000001707047002C01400004004882890749AE
:100610004A6300228A63CA63054910220A614022A4
:100620004A6192004A61022101707047002C01402A
:1006300000040048074A0021516383899363D16312
:10064000054A10235361402353619B0013610170DD
:1006500070470000002C01400004004807490022B8
:100660004A6383898B63CA63054910220A61402269
:100670004A6192004A61022101707047002C0140DA
:1006800000040048074A0021516391638389D363C2
:10069000054A10235361402353619B00136101708D
:1006A00070470000002C0140000400480749002268
:1006B0004A638A638289CA63054910224A614022DB
:1006C0000A6192004A61012101707047002C0140CB
:1006D00000040048F8B50121880400F075FB0121F1
:1006E000480400F071FB684600F0CEF80324684629
:1006F000048084701026274FC6706946384600F083
:100700005AF8684600F0C0F80C2168460180482578
:10071000C5706946384600F04EF8684600F0B4F8F7
:10072000C021684601808470C6702E066946304636
:1007300000F041F801220321384600F0ADF8012213
:10074000C021304600F0A8F8684600F09DF8082166
:10075000684601808470C5706946384600F02BF801
:10076000684600F091F87901684601808470C57090
:100770006946304600F01FF8684600F085F804210D
:10078000684601808470C5706946384600F013F8E9
:10079000F8BD00000004004870B50C46054600F0A6
:1007A0006AF800282146284602D000F069F870BD9A
:1007B00000F068F870BDF0B58646C8780207120FE1
:1007C000C00601D588780243002470460123A5069F
:1007D0002D0E0F881E46A640374207D006680F2709
:1007E000AF40BE431746AF403E430660641CE4B2D0
:1007F000082CECD30C88240AA4460024001DA5066E
:100800002D0E1E46A64067463E4207D006680F27BB
:10081000AF40BE431746AF403E430660641CE4B29F
:10082000082CECD3C878282808D0482805D1704671
:1008300000690988084371460861F0BD7046406947
:100840000988084371464861F0BD4B0710B4DB0EC0
:10085000082901D2203000E024300F249C40016898
:100860009A40A1431143016010BC70478068084062
:1008700000D001207047C068084000D001207047B8
:1008800041617047016170470021C9430180032124
:1008900081700421C1707047002A01D00161704746
:1008A0004161704704494A69C00752085200C00FAD
:1008B00002434A617047000000000340FEE7000069
:1008C000F0B5D14CD14FD24D606883B0401C606010
:1008D00021463846FFF73CFE3846FFF76DFE2A7981
:1008E000CC49CD4800260090092A76D210007844E1
:1008F00000790018874404141724384182B6D400C4
:10090000FFF766FEC548C169491CC1610120C002EC
:10091000814206D1FFF752FE386978610120BCE0C0
:10092000666003B0F0BD00F059FE00F00FFEBB485A
:10093000C660466086600661697901700320ACE09C
:10094000384600F07DF90028B44802D0066203B0B2
:10095000F0BD016A491C01626429F8DD0662666027
:1009600000F01EFE042098E0FF212D312046E98092
:100970002E81FFF737FE05208FE00820285E411CFE
:1009800029810621695E884202DB2E8106202871BA
:10099000384600F055F9002825D0606800280AD0B4
:1009A00061689F4800F020FCB96938225143C000BB
:1009B00008188009B8616068410898484161B98B9E
:1009C0000729ADD36A790099C9788A4206D0BE83D7
:1009D000027801214A4002700EE00BE1BE77072148
:1009E000297106629CE78D48016A4A1C02628D4AA1
:1009F0009142ACD9BE61066202204EE0E888A2892D
:100A0000093800B2252800DA2520E880D21D90B2EE
:100A10007F2800D97F2060812081A0817F480078D5
:100A200000288148205607D082005118401CA0732E
:100A300009682046884707E07C4982005118401E1B
:100A4000A0730968204688470E202056052801DD3E
:100A5000A67305E00E202056002801DA0520A073B9
:100A600005201AE06D488269521C826143699A42EE
:100A700000D26CE7042206628261009A0123D356F9
:100A80002046D278002A03D09A008958884703E08C
:100A900066499A00895888470820287103B0F0BD3C
:100AA000384600F0CDF800287DD00098C0786979EC
:100AB000884278D16068002804D06168584800F006
:100AC00093FB01906068554B40085861B869382124
:100AD00048430199C90040188009B86154493869F0
:100AE000544A081A596809185960914202DD1146A2
:100AF000596002E0504A91427DDB010142184749AA
:100B00008968411ACB005B1A44499C464968152301
:100B10005943D317DB0D9A18CB179B0C5918521257
:100B2000891351186346DA17120E6244121289189B
:100B30003A4A906001D44A2901DA4A2102E03F484A
:100B400081425ADC61812968B8693A4B081A3349F5
:100B500000B2CA681218CA609A4201DDCB6002E096
:100B6000354B9A424BDB2D49020109698318411A22
:100B7000CA00521A29491527C9687943DF17FF0DA2
:100B8000FB18CF17BF0C79185B1289135918D317AC
:100B90001B0E9A1812128918204A106101D44A2992
:100BA00002DA4A2103E00EE0244881422ADC218156
:100BB00060892189884201D9208900E06089A0816B
:100BC0006660072009E01548016A491C0A46FF3A99
:100BD00001622E3A02D10662022028710098007943
:100BE000002801D15AE706E00C480662022028716D
:100BF00003B0F0BDFEE75A607FE70146A2E70E4A68
:100C0000CA60B0E70D49D2E78C0000209C000020AC
:100C1000800000204C000020BC00002028000020A4
:100C2000801A0600102700000E000000640000205B
:100C30007C1500009005100070FAEFFF45050000DC
:100C4000F0B40921C9068A688B681207D20F5B07C6
:100C50008968DB0F8907C90F5B00890059188B1859
:100C60000146203100240C57827F0125072A03D337
:100C70000D71F0BC00207047234E00223768BB4244
:100C800002D08A7033603BE08E78761C76B28E702C
:100C9000082E35DD8A70002B32D0072B30D01B4E4A
:100CA000F3569C422CD0002C18D1012B02D0052BDE
:100CB00009D013E0C67F761C76B2C677052E0AD11E
:100CC000C277CD7007E0C57F6D1E6DB2C5776D1D13
:100CD00001D1C277CA70828B521C8283E21A52B24F
:100CE000002A00DC524252B2012A04D0052A02D066
:100CF000827F521C82770B704B70F0BC01207047D2
:100D0000F0BC0020704700007C0000203416000872
:100D10007047000030B4837801210278002B15D091
:100D200094080E4BA400E41823689207D20EFF2506
:100D30009540AB434578AD072D0E95402B4323607E
:100D40000078C006C00E8140054803E0D006C00E02
:100D500081400448016030BC7047000000E400E0BE
:100D600000E100E080E100E010B500F001F810BD06
:100D700010B584B0684600F03FF87D21C9000198A5
:100D8000FFF7BEF90C49401E884214D80B49486150
:100D90000B480722C3691B021B0A4C042343C3618F
:100DA00000238B610A61C1690902090A0207114324
:100DB000C16104B010BDFEE7FFFFFF0000E000E0EE
:100DC00004ED00E070470000044A0029116A01D0D8
:100DD000014300E0814311627047000000100240AF
:100DE000044A0029916A01D0014300E081439162E5
:100DF00070470000001002400D4A51680C23194052
:100E00000C4B01D00C2901D0036001E00A490160BC
:100E100051680A4B0906090F5B5C0168D9404160C3
:100E20005268074B5205520F9A5CD140816070475F
:100E30000010024000879303409C0000080000203F
:100E400000000020704710B5FFF72EFB10BD00001A
:100E500030B4344A82B01068012318431060A020D7
:100E60005060981E90600024946001940093106874
:100E700018431060022105252D02106808400090DB
:100E80000198401C01900098002802D10198A842C6
:100E9000F3D11068800701D5009300E00094234946
:100EA000214808600098012838D1214801681023A2
:100EB000194301600168C908C90001600368012184
:100EC0000B4303605068F0239843506050689021B2
:100ED00008435060506807210902884350605068F9
:100EE000506000217D20C00000BF491C8142FBD31F
:100EF0005168994351605168802421435160002119
:100F000000BF491C8142FBD351689943516051682D
:100F10005160002100BF491C8142FBD302B030BCAC
:100F20007047000000100240008793031400002067
:100F30000020024080220029016801D0114300E016
:100F400091430160704710B4036A01248C40D207BA
:100F5000D20FA3438A401343036210BC7047002999
:100F6000016802D00122114301E0490849000160F3
:100F700070470122D2030029416C01D0114300E0E7
:100F80009143416470470000826970239A430B7853
:100F90005B075B0E1A438261026A0B7952085200AA
:100FA000DB07DB0F1A430262026A02239A430B7CBF
:100FB000DB079B0F1A430262CA684263114A9042E0
:100FC0001FD1026A04239A430B79DB075B0F1A4394
:100FD0000262026A08239A430B7CDB071B0F1A4349
:100FE0000262426883159A430B7EDB07DB0D1A43CE
:100FF00042604268097F4315C9079A43890D0A4335
:1010000042607047002C0140826908239A431940CE
:101010000A43826170470000826907231B039A43D9
:101020000B785B075B0C1A438261026A10239A43B8
:101030000B79DB07DB0E1A430262026A20239A4314
:101040000B7CDB079B0E1A430262CA688263124A5A
:1010500090421FD1026A40239A430B79DB075B0E53
:101060001A430262026A80239A430B7CDB071B0E41
:101070001A430262426803159A430B7EDB075B0D3D
:101080001A4342604268097FC314C9079A43090D95
:101090000A43426070470000002C0140826901232E
:1010A000DB029A430823194009020A438261704710
:1010B000C26970239A430B785B075B0E1A43C261C7
:1010C000026AFF2301339A430B79DB07DB0D1A43D6
:1010D0000262026A01235B029A430B7CDB079B0DD1
:1010E0001A430262CA68C263114A90421FD1026A5F
:1010F00003159A430B79DB075B0D1A430262026A00
:10110000C3149A430B7CDB071B0D1A43026242682F
:1011100083149A430B7EDB07DB0C1A434260426860
:10112000097F4314C9079A43890C0A4342607047F8
:10113000002C0140C26908239A4319400A43C26146
:1011400070470021016041608160C16001614161BF
:101150008161C1617047426870239A4319400A4314
:101160004260704730B4026803231B02CC689A4384
:101170001C40224302600F4B984203D00122920789
:10118000904206D1026870244D68A24325402A434C
:101190000260984205D1026B0B7C120A12021A43BC
:1011A00002638A68C262098881620121416130BCA0
:1011B00070470000002C01400021C94381600021DC
:1011C0000180C16041600174704702E008C8121FCD
:1011D00008C1002AFAD170477047002001E001C120
:1011E000121F002AFBD17047024A106051609068BC
:1011F0007047000000000340F0B595B00C20694630
:10120000087601268E7600244C7606A8FFF782FD2C
:1012100081480168090A0902016001218806FFF777
:10122000D3FD0120FFF73EFB05A8FFF72DFB0E20A5
:101230006946888203258D752820C875092005A96F
:10124000C006FFF7B8FA01214804FFF7BDFD05A865
:10125000FFF71AFB3020694688828D75CC7509200E
:1012600005A9C006FFF7A7FA05A8FFF70DFB694619
:101270008E828D751027CF75092005A9C006FFF74E
:101280009AFA01214804FFF79FFD01218804FFF726
:101290009BFD05A8FFF7F8FAFF20513069468882C8
:1012A0008D75CF7505A95D48FFF785FA01214803C3
:1012B000FFF796FD10A8FFF79DF830021090400050
:1012C00087001290119410A914975548FEF7F4FF67
:1012D0000B2203215248FFF775F80B2204215048D6
:1012E000FFF770F801214E48FFF718F8032200219C
:1012F0004B48FFF72EF8042201214948FFF729F84F
:10130000484A00214648FFF713F8464A012144485D
:10131000FFF70EF80023320439464148FFF73AF848
:1013200001213F48FFF72DF801213D48FFF720F844
:10133000012210213A48FEF77FFF01213848FEF7CD
:101340002EFF01218804FFF73FFD002205213348CD
:10135000FFF77BFA002207213048FFF776FA0022D8
:1013600009212E48FFF771FA05A8FFF78DFA15201D
:101370004001694688828D751820C87505A92748DF
:10138000FFF719FA01210846FFF72AFD264D202113
:101390002846FFF7E0FE6846FFF70EFF69460C801F
:1013A000202001902148029003940C742846FFF7F6
:1013B000D9FE00212846FFF7BDFD08A8FFF7C1FEB2
:1013C00006200D9409960A9608900B940C940E949E
:1013D00008A90F942846FFF7D7FD08A928460B94C3
:1013E000FFF71AFE08A928460B94FFF761FE0021BB
:1013F0002846FFF709FE00212846FFF74FFE00218F
:101400002846FFF797FE01212846FFF7A8FDFFF7C2
:101410003DF815B0F0BD00000CE400E00004004809
:10142000002401400F060000002C0140DB050000F5
:1014300082B0FFF799FCFFF74DF9FFF7DDFE0020C2
:10144000FEF7F0FFFFF71AF800253B483B4F2C460C
:101450002E460195009008213846FFF707FA00282C
:101460001AD0002D01D06D1E6DB201210920C903D3
:10147000C006FFF7FBF900283CD0002C01D0641E09
:1014800064B204213846FFF7F1F9002847D0002E56
:10149000E1D0761E76B2DEE728466D1C6DB23228AA
:1014A000E3D9002502213846FFF776F901213846B5
:1014B000FFF772F909208021C006FFF76DF90920B6
:1014C0004021C006FFF768F9FF20F530FEF7E4FF82
:1014D000019801214840019009D00098FEF7AEFF25
:1014E000FEF7CCFFFEF7B6FFFEF7C8FFBDE7FEF73D
:1014F000BBFFBAE72046641C64B23228C1D9009809
:101500000F49C83080B200240090884201D90D48AC
:101510000090FEF793FF3220FEF7BEFFB1E73046A2
:10152000761C76B2322896D90024FEF769FF064869
:10153000FEF7B2FF8FE700000442000000040048FD
:101540006842000088130000DC0500000F4A107A92
:101550000F4948710220087100200881C880126874
:101560000A600C4948601D224A810A818A81887379
:10157000094A9077094908710870D0778870C87057
:10158000908348709061106110607047C400002023
:10159000800000208C0000209C000020BC00002067
:1015A00010B509200121C006FFF76CF90A4C012291
:1015B00000212046FFF7C7FC012204212046FFF747
:1015C000C2FC012208212046FFF7BDFC0121204674
:1015D000FFF7CFFC10BD0000002C014070B50920C2
:1015E0000121C006FFF74CF9104C0022114620469D
:1015F000FFF7A9FC002204212046FFF7A4FC0022EB
:1016000008212046FFF79FFC094D10212846FFF7CF
:1016100037F940212846FFF733F9A1152846FFF78F
:101620002FF900212046FFF7A4FC70BD002C0140DB
:101630000004004800010302050004005C160008D5
:101640000000002080000000CA110008DC1600081D
:101650008000002050040000DA11000800000000A3
:101660000102030400000000000000000102030466
:10167000008793030000000000000000000000004D
:101680000000000001000000000000000000000059
:10169000000000000000000000000000000000004A
:1016A0000000000000000000E50500080D0600082D
:1016B0005D0600083506000885060008AD0600082E
:1016C000AD060008E50500080D0600085D060008E7
:0C16D00035060008850600080000000038
:04000005080000C12E
:00000001FF
